{
  "contractName": "MainBridge",
  "abi": [
    {
      "inputs": [
        {
          "internalType": "address",
          "name": "_mainToken",
          "type": "address"
        },
        {
          "internalType": "address",
          "name": "_gateway",
          "type": "address"
        }
      ],
      "stateMutability": "nonpayable",
      "type": "constructor"
    },
    {
      "anonymous": false,
      "inputs": [
        {
          "indexed": true,
          "internalType": "address",
          "name": "requester",
          "type": "address"
        },
        {
          "indexed": true,
          "internalType": "bytes32",
          "name": "sideDepositHash",
          "type": "bytes32"
        },
        {
          "indexed": false,
          "internalType": "uint256",
          "name": "amount",
          "type": "uint256"
        },
        {
          "indexed": false,
          "internalType": "uint256",
          "name": "timestamp",
          "type": "uint256"
        }
      ],
      "name": "TokensReceived",
      "type": "event"
    },
    {
      "anonymous": false,
      "inputs": [
        {
          "indexed": true,
          "internalType": "address",
          "name": "requester",
          "type": "address"
        },
        {
          "indexed": true,
          "internalType": "bytes32",
          "name": "mainDepositHash",
          "type": "bytes32"
        },
        {
          "indexed": false,
          "internalType": "uint256",
          "name": "amount",
          "type": "uint256"
        },
        {
          "indexed": false,
          "internalType": "uint256",
          "name": "timestamp",
          "type": "uint256"
        }
      ],
      "name": "TokensSent",
      "type": "event"
    },
    {
      "inputs": [
        {
          "internalType": "address",
          "name": "_requester",
          "type": "address"
        },
        {
          "internalType": "uint256",
          "name": "_bridgedAmount",
          "type": "uint256"
        },
        {
          "internalType": "bytes32",
          "name": "_mainDepositHash",
          "type": "bytes32"
        }
      ],
      "name": "sendTokens",
      "outputs": [],
      "stateMutability": "nonpayable",
      "type": "function"
    },
    {
      "inputs": [
        {
          "internalType": "address",
          "name": "_requester",
          "type": "address"
        },
        {
          "internalType": "uint256",
          "name": "_bridgedAmount",
          "type": "uint256"
        },
        {
          "internalType": "bytes32",
          "name": "_sideDepositHash",
          "type": "bytes32"
        }
      ],
      "name": "receiveTokens",
      "outputs": [],
      "stateMutability": "nonpayable",
      "type": "function"
    }
  ],
  "bytecode": "0x608060405234801561001057600080fd5b506040516107473803806107478339818101604052810190610032919061011d565b816000806101000a81548173ffffffffffffffffffffffffffffffffffffffff021916908373ffffffffffffffffffffffffffffffffffffffff16021790555080600160006101000a81548173ffffffffffffffffffffffffffffffffffffffff021916908373ffffffffffffffffffffffffffffffffffffffff160217905550505061015d565b600080fd5b600073ffffffffffffffffffffffffffffffffffffffff82169050919050565b60006100ea826100bf565b9050919050565b6100fa816100df565b811461010557600080fd5b50565b600081519050610117816100f1565b92915050565b60008060408385031215610134576101336100ba565b5b600061014285828601610108565b925050602061015385828601610108565b9150509250929050565b6105db8061016c6000396000f3fe608060405234801561001057600080fd5b50600436106100365760003560e01c8063141fb3951461003b5780631c8cf35814610057575b600080fd5b610055600480360381019061005091906103da565b610073565b005b610071600480360381019061006c91906103da565b610177565b005b60008054906101000a900473ffffffffffffffffffffffffffffffffffffffff1673ffffffffffffffffffffffffffffffffffffffff16639dc29fac33846040518363ffffffff1660e01b81526004016100ce92919061044b565b602060405180830381600087803b1580156100e857600080fd5b505af11580156100fc573d6000803e3d6000fd5b505050506040513d601f19601f8201168201806040525081019061012091906104ac565b50808373ffffffffffffffffffffffffffffffffffffffff167f93349aea18ab0cd84cb3d9ac088b2e8ec8ebe839784fef7be18fa4c8e286828e844260405161016a9291906104d9565b60405180910390a3505050565b600160009054906101000a900473ffffffffffffffffffffffffffffffffffffffff1673ffffffffffffffffffffffffffffffffffffffff163373ffffffffffffffffffffffffffffffffffffffff1614610207576040517f08c379a00000000000000000000000000000000000000000000000000000000081526004016101fe90610585565b60405180910390fd5b60008054906101000a900473ffffffffffffffffffffffffffffffffffffffff1673ffffffffffffffffffffffffffffffffffffffff166340c10f1984846040518363ffffffff1660e01b815260040161026292919061044b565b602060405180830381600087803b15801561027c57600080fd5b505af1158015610290573d6000803e3d6000fd5b505050506040513d601f19601f820116820180604052508101906102b491906104ac565b50808373ffffffffffffffffffffffffffffffffffffffff167fcfa390dfda05af9a2570d1006f4a782236f3e305d15003be921a10ec3b6fcb3084426040516102fe9291906104d9565b60405180910390a3505050565b600080fd5b600073ffffffffffffffffffffffffffffffffffffffff82169050919050565b600061033b82610310565b9050919050565b61034b81610330565b811461035657600080fd5b50565b60008135905061036881610342565b92915050565b6000819050919050565b6103818161036e565b811461038c57600080fd5b50565b60008135905061039e81610378565b92915050565b6000819050919050565b6103b7816103a4565b81146103c257600080fd5b50565b6000813590506103d4816103ae565b92915050565b6000806000606084860312156103f3576103f261030b565b5b600061040186828701610359565b93505060206104128682870161038f565b9250506040610423868287016103c5565b9150509250925092565b61043681610330565b82525050565b6104458161036e565b82525050565b6000604082019050610460600083018561042d565b61046d602083018461043c565b9392505050565b60008115159050919050565b61048981610474565b811461049457600080fd5b50565b6000815190506104a681610480565b92915050565b6000602082840312156104c2576104c161030b565b5b60006104d084828501610497565b91505092915050565b60006040820190506104ee600083018561043c565b6104fb602083018461043c565b9392505050565b600082825260208201905092915050565b7f6f6e6c7920676174657761792063616e2065786563757465207468697320667560008201527f6e6374696f6e0000000000000000000000000000000000000000000000000000602082015250565b600061056f602683610502565b915061057a82610513565b604082019050919050565b6000602082019050818103600083015261059e81610562565b905091905056fea264697066735822122035652c0830e4a45b54d92e2fa3767b4fd742bc855c8bfceffe0cb223f03e1f7664736f6c63430008080033",
  "immutableReferences": {},
  "source": "// SPDX-License-Identifier: MIT\npragma solidity ^0.8.0;\n\n//Remix style import\n//import { IERC20 } from \"@openzeppelin/contracts@4.0.0/token/ERC20/IERC20.sol\";\n\n//Brownie style import\nimport \"@openzeppelin/contracts/token/ERC20/IERC20.sol\";\n\n\ncontract MainBridge {\n\n    IERC20 private token;\n\n    address gateway;\n\n    event TokensSent(address indexed requester, bytes32 indexed mainDepositHash, uint amount, uint timestamp);\n    event TokensReceived(address indexed requester, bytes32 indexed sideDepositHash, uint amount, uint timestamp);\n\n    constructor (address _mainToken, address _gateway) {\n        token = IERC20(_mainToken);\n        gateway = _gateway;\n    }\n\n    function sendTokens (address _requester, uint _bridgedAmount, bytes32 _mainDepositHash) external {\n        //Added code\n        token.burn(msg.sender, _bridgedAmount);\n        \n        emit TokensSent(_requester, _mainDepositHash, _bridgedAmount, block.timestamp);\n    }\n\n    function receiveTokens (address _requester, uint _bridgedAmount, bytes32 _sideDepositHash) onlyGateway external {\n        //Updated code\n        token.mint(_requester, _bridgedAmount);\n        emit TokensReceived(_requester, _sideDepositHash, _bridgedAmount, block.timestamp);\n    }\n\n    modifier onlyGateway {\n      require(msg.sender == gateway, \"only gateway can execute this function\");\n      _;\n    }\n    \n\n}\n",
  "sourcePath": "/Users/dakshjoshi/Desktop/Blockchain/Global Xchange/dApp/Bridge/contracts/Bridge.sol",
  "compiler": {
    "name": "solc",
    "version": "0.8.8+commit.dddeac2f.Emscripten.clang"
  },
  "schemaVersion": "3.4.3",
  "updatedAt": "2022-05-02T22:20:06.348Z",
  "devdoc": {
    "kind": "dev",
    "methods": {},
    "version": 1
  },
  "userdoc": {
    "kind": "user",
    "methods": {},
    "version": 1
  }
}