{
  "contractName": "SideBridge",
  "abi": [
    {
      "inputs": [
        {
          "internalType": "address",
          "name": "_gateway",
          "type": "address"
        }
      ],
      "stateMutability": "nonpayable",
      "type": "constructor"
    },
    {
      "anonymous": false,
      "inputs": [
        {
          "indexed": true,
          "internalType": "uint256",
          "name": "timestamp",
          "type": "uint256"
        }
      ],
      "name": "BridgeInitialized",
      "type": "event"
    },
    {
      "anonymous": false,
      "inputs": [
        {
          "indexed": true,
          "internalType": "address",
          "name": "requester",
          "type": "address"
        },
        {
          "indexed": true,
          "internalType": "bytes32",
          "name": "mainDepositHash",
          "type": "bytes32"
        },
        {
          "indexed": false,
          "internalType": "uint256",
          "name": "amount",
          "type": "uint256"
        },
        {
          "indexed": false,
          "internalType": "uint256",
          "name": "timestamp",
          "type": "uint256"
        }
      ],
      "name": "TokensBridged",
      "type": "event"
    },
    {
      "anonymous": false,
      "inputs": [
        {
          "indexed": true,
          "internalType": "address",
          "name": "requester",
          "type": "address"
        },
        {
          "indexed": true,
          "internalType": "bytes32",
          "name": "sideDepositHash",
          "type": "bytes32"
        },
        {
          "indexed": false,
          "internalType": "uint256",
          "name": "amount",
          "type": "uint256"
        },
        {
          "indexed": false,
          "internalType": "uint256",
          "name": "timestamp",
          "type": "uint256"
        }
      ],
      "name": "TokensReturned",
      "type": "event"
    },
    {
      "inputs": [
        {
          "internalType": "address",
          "name": "_childTokenAddress",
          "type": "address"
        }
      ],
      "name": "initializeBridge",
      "outputs": [],
      "stateMutability": "nonpayable",
      "type": "function"
    },
    {
      "inputs": [
        {
          "internalType": "address",
          "name": "_requester",
          "type": "address"
        },
        {
          "internalType": "uint256",
          "name": "_bridgedAmount",
          "type": "uint256"
        },
        {
          "internalType": "bytes32",
          "name": "_mainDepositHash",
          "type": "bytes32"
        }
      ],
      "name": "bridgeTokens",
      "outputs": [],
      "stateMutability": "nonpayable",
      "type": "function"
    },
    {
      "inputs": [
        {
          "internalType": "address",
          "name": "_requester",
          "type": "address"
        },
        {
          "internalType": "uint256",
          "name": "_bridgedAmount",
          "type": "uint256"
        },
        {
          "internalType": "bytes32",
          "name": "_sideDepositHash",
          "type": "bytes32"
        }
      ],
      "name": "returnTokens",
      "outputs": [],
      "stateMutability": "nonpayable",
      "type": "function"
    }
  ],
  "bytecode": "0x608060405234801561001057600080fd5b50604051610aa2380380610aa28339818101604052810190610032919061011d565b80600260006101000a81548173ffffffffffffffffffffffffffffffffffffffff021916908373ffffffffffffffffffffffffffffffffffffffff16021790555033600160006101000a81548173ffffffffffffffffffffffffffffffffffffffff021916908373ffffffffffffffffffffffffffffffffffffffff1602179055505061014a565b600080fd5b600073ffffffffffffffffffffffffffffffffffffffff82169050919050565b60006100ea826100bf565b9050919050565b6100fa816100df565b811461010557600080fd5b50565b600081519050610117816100f1565b92915050565b600060208284031215610133576101326100ba565b5b600061014184828501610108565b91505092915050565b610949806101596000396000f3fe608060405234801561001057600080fd5b50600436106100415760003560e01c80632065f2c0146100465780635fa420a9146100625780637a0627911461007e575b600080fd5b610060600480360381019061005b91906105b1565b61009a565b005b61007c6004803603810190610077919061064a565b610188565b005b6100986004803603810190610093919061064a565b61036b565b005b600160009054906101000a900473ffffffffffffffffffffffffffffffffffffffff1673ffffffffffffffffffffffffffffffffffffffff163373ffffffffffffffffffffffffffffffffffffffff161461012a576040517f08c379a000000000000000000000000000000000000000000000000000000000815260040161012190610720565b60405180910390fd5b806000806101000a81548173ffffffffffffffffffffffffffffffffffffffff021916908373ffffffffffffffffffffffffffffffffffffffff1602179055506001600060146101000a81548160ff02191690831515021790555050565b600060149054906101000a900460ff166101d7576040517f08c379a00000000000000000000000000000000000000000000000000000000081526004016101ce9061078c565b60405180910390fd5b600260009054906101000a900473ffffffffffffffffffffffffffffffffffffffff1673ffffffffffffffffffffffffffffffffffffffff163373ffffffffffffffffffffffffffffffffffffffff1614610267576040517f08c379a000000000000000000000000000000000000000000000000000000000815260040161025e9061081e565b60405180910390fd5b60008054906101000a900473ffffffffffffffffffffffffffffffffffffffff1673ffffffffffffffffffffffffffffffffffffffff16639dc29fac84846040518363ffffffff1660e01b81526004016102c292919061085c565b602060405180830381600087803b1580156102dc57600080fd5b505af11580156102f0573d6000803e3d6000fd5b505050506040513d601f19601f8201168201806040525081019061031491906108bd565b50808373ffffffffffffffffffffffffffffffffffffffff167fba3809a24948d41e15773b22a28a1c0933973b2987dd15c6d028ca91397a4bd6844260405161035e9291906108ea565b60405180910390a3505050565b600060149054906101000a900460ff166103ba576040517f08c379a00000000000000000000000000000000000000000000000000000000081526004016103b19061078c565b60405180910390fd5b600260009054906101000a900473ffffffffffffffffffffffffffffffffffffffff1673ffffffffffffffffffffffffffffffffffffffff163373ffffffffffffffffffffffffffffffffffffffff161461044a576040517f08c379a00000000000000000000000000000000000000000000000000000000081526004016104419061081e565b60405180910390fd5b60008054906101000a900473ffffffffffffffffffffffffffffffffffffffff1673ffffffffffffffffffffffffffffffffffffffff166340c10f1984846040518363ffffffff1660e01b81526004016104a592919061085c565b602060405180830381600087803b1580156104bf57600080fd5b505af11580156104d3573d6000803e3d6000fd5b505050506040513d601f19601f820116820180604052508101906104f791906108bd565b50808373ffffffffffffffffffffffffffffffffffffffff167f8dc81f2443de6a44d7971a95a7a73309a62194b83fabf4e9c9e81310c4e83c9f84426040516105419291906108ea565b60405180910390a3505050565b600080fd5b600073ffffffffffffffffffffffffffffffffffffffff82169050919050565b600061057e82610553565b9050919050565b61058e81610573565b811461059957600080fd5b50565b6000813590506105ab81610585565b92915050565b6000602082840312156105c7576105c661054e565b5b60006105d58482850161059c565b91505092915050565b6000819050919050565b6105f1816105de565b81146105fc57600080fd5b50565b60008135905061060e816105e8565b92915050565b6000819050919050565b61062781610614565b811461063257600080fd5b50565b6000813590506106448161061e565b92915050565b6000806000606084860312156106635761066261054e565b5b60006106718682870161059c565b9350506020610682868287016105ff565b925050604061069386828701610635565b9150509250925092565b600082825260208201905092915050565b7f4f6e6c79206f776e65722063616e206578656375746520746869732066756e6360008201527f74696f6e00000000000000000000000000000000000000000000000000000000602082015250565b600061070a60248361069d565b9150610715826106ae565b604082019050919050565b60006020820190508181036000830152610739816106fd565b9050919050565b7f42726964676520686173206e6f74206265656e20696e697469616c697a656400600082015250565b6000610776601f8361069d565b915061078182610740565b602082019050919050565b600060208201905081810360008301526107a581610769565b9050919050565b7f4f6e6c7920676174657761792063616e2065786563757465207468697320667560008201527f6e6374696f6e0000000000000000000000000000000000000000000000000000602082015250565b600061080860268361069d565b9150610813826107ac565b604082019050919050565b60006020820190508181036000830152610837816107fb565b9050919050565b61084781610573565b82525050565b610856816105de565b82525050565b6000604082019050610871600083018561083e565b61087e602083018461084d565b9392505050565b60008115159050919050565b61089a81610885565b81146108a557600080fd5b50565b6000815190506108b781610891565b92915050565b6000602082840312156108d3576108d261054e565b5b60006108e1848285016108a8565b91505092915050565b60006040820190506108ff600083018561084d565b61090c602083018461084d565b939250505056fea2646970667358221220864da5adb168d0ab1ffa8cf7a3e4838448d8f901d34733ff46c3fd8a1da9227164736f6c63430008080033",
  "immutableReferences": {},
  "source": "// SPDX-License-Identifier: MIT\npragma solidity ^0.8.0;\n\nimport \"@openzeppelin/contracts/token/ERC20/IERC20.sol\";\n\ncontract SideBridge {\n\n    event BridgeInitialized(uint indexed timestamp);\n    event TokensBridged(address indexed requester, bytes32 indexed mainDepositHash, uint amount, uint timestamp);\n    event TokensReturned(address indexed requester, bytes32 indexed sideDepositHash, uint amount, uint timestamp);\n    \n    IERC20 private sideToken;\n    bool bridgeInitState;\n    address owner;\n    address gateway;\n\n\n    constructor (address _gateway) {\n        gateway = _gateway;\n        owner = msg.sender;\n    }\n\n    function initializeBridge (address _childTokenAddress) onlyOwner external {\n        sideToken = IERC20(_childTokenAddress);\n        bridgeInitState = true;\n    }\n\n    function bridgeTokens (address _requester, uint _bridgedAmount, bytes32 _mainDepositHash) verifyInitialization onlyGateway  external {\n        sideToken.mint(_requester,_bridgedAmount);\n        emit TokensBridged(_requester, _mainDepositHash, _bridgedAmount, block.timestamp);\n    }\n\n    function returnTokens (address _requester, uint _bridgedAmount, bytes32 _sideDepositHash) verifyInitialization onlyGateway external {\n        sideToken.burn(_requester,_bridgedAmount);\n        emit TokensReturned(_requester, _sideDepositHash, _bridgedAmount, block.timestamp);\n    }\n\n    modifier verifyInitialization {\n      require(bridgeInitState, \"Bridge has not been initialized\");\n      _;\n    }\n    \n    modifier onlyGateway {\n      require(msg.sender == gateway, \"Only gateway can execute this function\");\n      _;\n    }\n\n    modifier onlyOwner {\n      require(msg.sender == owner, \"Only owner can execute this function\");\n      _;\n    }\n    \n\n}",
  "sourcePath": "/Users/dakshjoshi/Desktop/Blockchain/Global Xchange/dApp/Bridge/contracts/SideBridge.sol",
  "compiler": {
    "name": "solc",
    "version": "0.8.8+commit.dddeac2f.Emscripten.clang"
  },
  "schemaVersion": "3.4.3",
  "updatedAt": "2022-05-02T22:20:06.353Z",
  "devdoc": {
    "kind": "dev",
    "methods": {},
    "version": 1
  },
  "userdoc": {
    "kind": "user",
    "methods": {},
    "version": 1
  }
}